{
    "contractName": "Adoption",
    "abi": [
        {
            "constant": true,
            "inputs": [
                {
                    "name": "",
                    "type": "uint256"
                }
            ],
            "name": "adopters",
            "outputs": [
                {
                    "name": "",
                    "type": "address"
                }
            ],
            "payable": false,
            "stateMutability": "view",
            "type": "function"
        },
        {
            "anonymous": false,
            "inputs": [
                {
                    "indexed": false,
                    "name": "owner",
                    "type": "address"
                },
                {
                    "indexed": false,
                    "name": "petId",
                    "type": "uint256"
                }
            ],
            "name": "adopted",
            "type": "event"
        },
        {
            "constant": false,
            "inputs": [
                {
                    "name": "petId",
                    "type": "uint256"
                }
            ],
            "name": "adopt",
            "outputs": [
                {
                    "name": "",
                    "type": "uint256"
                }
            ],
            "payable": false,
            "stateMutability": "nonpayable",
            "type": "function"
        },
        {
            "constant": false,
            "inputs": [],
            "name": "getAdopters",
            "outputs": [
                {
                    "name": "",
                    "type": "address[16]"
                }
            ],
            "payable": false,
            "stateMutability": "nonpayable",
            "type": "function"
        }
    ],
    "bytecode": "0x608060405234801561001057600080fd5b506103ac806100206000396000f300608060405260043610610057576000357c0100000000000000000000000000000000000000000000000000000000900463ffffffff1680633de4eb171461005c57806343ae80d3146100af5780638588b2c51461011c575b600080fd5b34801561006857600080fd5b5061007161015d565b6040518082601060200280838360005b8381101561009c578082015181840152602081019050610081565b5050505090500191505060405180910390f35b3480156100bb57600080fd5b506100da600480360381019080803590602001909291905050506101de565b604051808273ffffffffffffffffffffffffffffffffffffffff1673ffffffffffffffffffffffffffffffffffffffff16815260200191505060405180910390f35b34801561012857600080fd5b5061014760048036038101908080359060200190929190505050610213565b6040518082815260200191505060405180910390f35b61016561035c565b60006010806020026040519081016040528092919082601080156101d4576020028201915b8160009054906101000a900473ffffffffffffffffffffffffffffffffffffffff1673ffffffffffffffffffffffffffffffffffffffff168152602001906001019080831161018a575b5050505050905090565b6000816010811015156101ed57fe5b016000915054906101000a900473ffffffffffffffffffffffffffffffffffffffff1681565b60008082101580156102265750600f8211155b151561029a576040517f08c379a000000000000000000000000000000000000000000000000000000000815260040180806020018281038252600e8152602001807f496c6c6567616c2070657420696400000000000000000000000000000000000081525060200191505060405180910390fd5b336000836010811015156102aa57fe5b0160006101000a81548173ffffffffffffffffffffffffffffffffffffffff021916908373ffffffffffffffffffffffffffffffffffffffff1602179055507f5d9f078596b92c610f561b74b83d5c1893cbb0d5764f20ac37eadda985e69a0d3383604051808373ffffffffffffffffffffffffffffffffffffffff1673ffffffffffffffffffffffffffffffffffffffff1681526020018281526020019250505060405180910390a1819050919050565b610200604051908101604052806010906020820280388339808201915050905050905600a165627a7a72305820baef475e4877da121310e33ed036459bf60fa5cb039b5fecd0b031c5ef5fcd970029",
    "source": "pragma solidity ^0.4.4;\n\ncontract Adoption {\n    // array of adopter ethereum wallet addresses\n    // 16 is the number of available pet\n    address[16] public adopters;\n\n    event adopted(address owner, uint petId);\n\n    // adopt one of pet\n    function adopt(uint petId) public returns (uint) {\n        // validation of pet id\n        require(petId >= 0 && petId <= 15, \"Illegal pet id\");\n\n        // msg.sender = adopter ethereum wallet address\n        adopters[petId] = msg.sender;\n\n        emit adopted(msg.sender, petId);\n\n        // return same pet id as success confirmation\n        return petId;\n    }\n\n    function getAdopters() public returns (address[16]) {\n        return adopters;\n    }\n}\n",
    "sourcePath": "/Users/itay/Workspaces/portis/portis-pet-shop/contracts/Adoption.sol",
    "compiler": {
        "name": "solc",
        "version": "0.4.24+commit.e67f0147.Emscripten.clang"
    },
    "schemaVersion": "2.0.1",
    "updatedAt": "2018-10-15T11:15:13.402Z"
}